:10000000BEC00000D7C00000D5C00000D3C00000B3
:10001000D1C00000CFC00000CDC00000CBC00000A8
:10002000C9C00000C7C00000C5C0000035C4000042
:10003000C1C00000BFC00000BDC00000BBC00000C8
:10004000B9C00000B7C00000B5C00000B3C00000D8
:10005000B1C00000AFC00000ADC00000ABC00000E8
:10006000A9C00000A7C00000A5C00000A3C00000F8
:10007000A1C00000080331002E0030000000400342
:10008000570069006900200043006F006E00740093
:1000900072006F006C006C00650072002000580058
:1000A00062006F0078002000410064006100700071
:1000B00074006F00720000001A03730061006E008C
:1000C0006A0061007900390030003000000004034C
:1000D000090409029900040100A0FA0904000002C1
:1000E000FF5D0100112100010125811400000000C5
:1000F0001301080000070581032000040705010320
:100100002000080904010004FF5D03001B21000119
:100110000101824001022016830000000000001649
:10012000030000000000000705820320000207050D
:100130000203200004070583032000400705030392
:100140002000100904020001FF5D020009210001E6
:10015000012284070007058403200010090403001E
:1001600000FFFD130406410001010312010002FF1C
:10017000FFFF405E048E02140101020301001124FE
:100180001FBECFEFD2E0DEBFCDBF11E0A0E0B1E0F7
:10019000E2EEFCE002C005900D92A230B107D9F763
:1001A00021E0A2E0B1E001C01D92A732B207E1F761
:1001B00050D095C525CF9093CD008093CC0088E199
:1001C0008093C90086E08093CA0008952091C800FA
:1001D00027FD0AC0EFE9FFE03197F1F700C000000A
:1001E0000197A1F780E008958091CE000895909145
:1001F000C80095FFFCCF8093CE0008958091C80081
:1002000087FF03C08091CE00F9CF08954AB121E065
:1002100030E0B90102C0660F771F8A95E2F7CB0183
:10022000462B4AB99BB1809589238BB908954AB171
:1002300021E030E0B90102C0660F771F8A95E2F72E
:10024000CB01962F909594239AB99BB1892B8BB9AA
:10025000089583E090E0AFDF80E880936100109222
:10026000610081E0FFD0FCD085E0D0DFC7DF80E017
:10027000BEDF89E190E0AADF8093080181E0B7DF6B
:1002800089E190E0A3DF8093090182E0B0DF89E19A
:1002900090E09CDF880F80930A0183E0A8DF89E16A
:1002A00090E094DF880F80930B0184E0A0DF89E168
:1002B00090E08CDF8058990B10920C0180930D0117
:1002C00085E095DF89E190E081DF8058990B1092FD
:1002D0000E0180930F0187E08ADF89E190E076DFED
:1002E00090E0909311018093100186E080DF1091DF
:1002F000100100E089E190E069DF9801282BC90135
:100300009058909311018093100189E070DF89E18A
:1003100090E05CDF90E0909313018093120188E0FD
:1003200066DF30911201D32F80E0C82F89E190E081
:100330004DDF9E01282BC9019058909313018093A3
:10034000120185E074DF8AD08ECF292F3327223027
:10035000310541F12330310559F02130310539F1B2
:1003600090E080E030E020E0FA01318320830895BE
:1003700099278130910581F0009741F082309105F5
:1003800071F0039769F7E4E7F0E002C0EEECF0E00B
:10039000849190E09F01E8CFE8EBF0E0F9CFEEE741
:1003A000F0E0F6CF89E990E022ED30E0DDCF82E1A8
:1003B00090E02BE631E0D8CFE0910401F091050107
:1003C000309709F009940895E0910201F09103013A
:1003D000309709F00994089542E261EC81E06BD115
:1003E00042E261EC83E067C180912001813099F4A1
:1003F00080911F01813A79F48091E800877F809392
:10040000E80064E170E086E091E096D08091E80039
:100410008B778093E800089580911E01843099F4D1
:1004200081E08093E9008091E80080FF0CC050E0FB
:1004300040E064E170E086E091E030D08091E80037
:100440008E778093E8000895E6E0F1E084E1DF0133
:10045000982F1D929A95E9F781830895DDDF24C4D2
:10046000A8950895882371F088E19FE00FB6F8946D
:10047000A895809360000FBE90936000E5DFFDD1EA
:10048000789408950FB6F894A895809160008861DB
:1004900080936000109260000FBEF0CFAF92BF92C9
:1004A000CF92DF92FF920F931F93CF93DF936C0154
:1004B000EB018A0153D1F82E811124C001151105D9
:1004C00039F0F80180819181C81BD90BC80ED91E63
:1004D000B12CA12C2097B1F08091E80085FD22C0BD
:1004E0008091E8008E778093E800DED30115110536
:1004F000A1F0F80180819181A80EB91EB182A0827D
:1005000085E0F82E8F2DDF91CF911F910F91FF90F5
:10051000DF90CF90BF90AF90089520D18823D1F283
:10052000F82EF0CFF60181916F018093F1002197B1
:10053000FFEFAF1ABF0ACECFFC0180912501909149
:10054000260186179707A0F06115710529F490918F
:10055000E8009E779093E80090E06115710551F4F2
:10056000911108C08091E80082FF35C080E00895B5
:10057000BC01F2CF80911E018823C9F18530C9F1F9
:100580008091E80083FD31C08091E80082FDEACFD0
:100590008091E80080FFE1CF2091F20030E04091AF
:1005A000000150E06115710519F02417350758F066
:1005B00091E04217530709F090E02091E8002E7770
:1005C0002093E800CACF81918093F10061507109B6
:1005D0002F5F3F4FE4CF80911E01882341F085308B
:1005E00041F08091E80083FFBDCF81E0089582E073
:1005F000089583E00895FC018091250190912601E2
:1006000086179707A0F06115710529F48091E8001D
:100610008E778093E80090E06115710551F4911197
:1006200008C08091E80082FF36C080E00895BC01D8
:10063000F2CF80911E018823D1F18530D1F18091D4
:10064000E80083FD32C08091E80082FDEACF80910E
:10065000E80080FFE1CF2091F20030E040910001FE
:1006600050E06115710519F02417350758F091E035
:100670004217530709F090E08091E8008E7780934D
:10068000E800CACF84918093F100319661507109DE
:100690002F5F3F4FE3CF80911E01882341F08530CB
:1006A00041F08091E80083FFBCCF81E0089582E0B3
:1006B000089583E00895982F953028F08F708093E7
:1006C000E90081E008959093E900242F762F50E00F
:1006D000981731F07091EC002091ED005091F000EE
:1006E00021FD02C09F5FE8CF3091EB003E7F309349
:1006F000EB003091ED003D7F3093ED003091EB0049
:1007000031603093EB007093EC002093ED00509338
:10071000F0002091EE0027FDE5CF80E00895809164
:100720001F0187FF13C08091E80082FF06C08091FF
:10073000E8008B778093E80004C080911E0181114E
:10074000F2CF089580911E018823D9F38091E800AB
:1007500080FFF8CF8091E8008E77ECCF2091E40005
:100760003091E50085E6A9019091EC0090FF06C06C
:100770009091E80090FF06C080E008959091E80015
:1007800092FDFACF90911E01992389F0953089F05E
:100790009091EB0095FD0FC02091E4003091E500B1
:1007A0004217530709F38150F1F684E0089582E07F
:1007B000089583E0089581E00895CF93DF9300D0FA
:1007C000CDB7DEB763D065D08091D8008F778093A6
:1007D000D8008091D80080688093D8008091D8009C
:1007E0008F7D8093D80084E089BD86E089BD09B4FF
:1007F00000FEFDCF10921E0110921A0110921C01F2
:1008000010921B01AE014F5F5F4F60E080E091E00E
:100810009CDD892B31F0E981FA813796E491E093F0
:1008200000012091000130E088E090E040E0821774
:100830009307F8F04295407F426060E080E03BDF44
:100840008091E1008E7F8093E1008091E2008160E1
:100850008093E2008091E20088608093E2008091C2
:10086000E0008E7F8093E0000F900F90DF91CF919A
:1008700008954F5F880F991FDACFE3E6F0E080819B
:100880008E7F808381E080931D0197CF1092E200DC
:1008900008951092E10008951F920F920FB60F92E3
:1008A00011242F933F934F935F936F937F938F9375
:1008B0009F93AF93BF93EF93FF938091E10082FFEB
:1008C0000AC08091E20082FF06C08091E1008B7F28
:1008D0008093E100E8D18091E10080FF17C0809112
:1008E000E20080FF13C08091E2008E7F8093E200DF
:1008F0008091E20080618093E2008091D800806264
:100900008093D80019BC10921E015EDD8091E10039
:1009100084FF28C08091E20084FF24C084E089BD68
:1009200086E089BD09B400FEFDCF8091D8008F7D9F
:100930008093D8008091E1008F7E8093E1008091C8
:10094000E2008F7E8093E2008091E20081608093DC
:10095000E20080911A01882309F446C084E0809364
:100960001E012ADD8091E10083FF2DC08091E2000D
:1009700083FF29C08091E100877F8093E10082E0BE
:1009800080931E0110921A018091E1008E7F809366
:10099000E1008091E2008E7F8093E2008091E2008E
:1009A00080618093E2002091000130E088E090E0D7
:1009B00040E08217930700F14295407F426060E07B
:1009C00080E079DE70D1FF91EF91BF91AF919F915F
:1009D0008F917F916F915F914F913F912F910F90E8
:1009E0000FBE0F901F9018958091E30087FD02C005
:1009F00081E0B5CF83E0B3CF4F5F880F991FD9CF88
:100A00001F93CF93DF93CDB7DEB7AA970FB6F894B5
:100A1000DEBF0FBECDBF8FE191E02091F100FC0160
:100A20002193CF01F1E087329F07B9F7DDDC809198
:100A3000E80083FF11C090911F0180912001853053
:100A400009F4BDC008F5813009F489C0882309F490
:100A500061C0833009F483C08091E80083FF0AC03D
:100A60008091E800877F8093E8008091EB008062AE
:100A70008093EB00AA960FB6F894DEBF0FBECDBFF1
:100A8000DF91CF911F910895883009F4CDC089304E
:100A900009F4D7C0863001F790589230E8F680917B
:100AA0002101909122018C3D23E0920709F0A9C019
:100AB00083E08A838AE289834FB7F894DE01139634
:100AC00020E03EE051E2E32FF0E050935700E49144
:100AD00020FF03C0E295EF703F5FEF708E2F90E034
:100AE000EA3008F48CC0C7968D939D932F5F243114
:100AF00051F74FBF8091E800877F8093E8006AE25A
:100B000070E0CE01019618DD8091E8008B7780932C
:100B1000E800A2CF903881F0923809F09DCF809103
:100B200023018F708093E9008091EB0085FB88277B
:100B300080F91092E90006C080911B0190911C0180
:100B4000911182609091E800977F9093E8008093E4
:100B5000F1001092F1008091E8008E77A0C09923F7
:100B600009F48DC0923009F077CF90912101911155
:100B700091C0909123019F7009F46ECF9093E9008A
:100B80002091EB0020FF86C0833031F48091EB0090
:100B900080628093EB007EC08091EB008061809347
:100BA000EB0021E030E001C0220F9A95EAF7209394
:100BB000EA001092EA008091EB008860EACF911180
:100BC0004BCF109121011F778091E3008078812B1A
:100BD0008093E3008091E800877F8093E8009FDDA9
:100BE0008091E80080FFFCCF8091E30080688093D3
:100BF000E30082E0111183E080931E012DCFC096A7
:100C000073CFAE014F5F5F4F609123019EDBBC014C
:100C1000892B09F421CF9091E800977F9093E80009
:100C200089819A81E8DC70CF903809F015CF8091E6
:100C3000E800877F8093E80080911A018093F1009B
:100C40008ACF911109CF90912101923008F004CF01
:100C50008091E800877F8093E80090931A015FDD20
:100C600080911A01882311F084E005C08091E3008F
:100C700087FDFACF81E080931E01AEDBEDCE90912F
:100C80002101913009F0E8CE91E0833009F090E045
:100C900090931C011092E9008091E800877F809377
:100CA000E8003DDDD9CE0895CF9380911E018823C1
:100CB00091F0C091E900CF708091EC0080FD0DC0F3
:100CC00080E0C82B1092E9008091E80083FD98DE57
:100CD000CF70C093E900CF91089580E8F2CFF894E7
:020CE000FFCF44
:020CE200080008
:00000001FF
