:100000000C9434000C9451000C9451000C94510049
:100010000C9451000C9451000C9451000C9451001C
:100020000C9451000C9451000C9451000C9451000C
:100030000C9451000C9451000C9451000C945100FC
:100040000C9451000C9451000C9451000C945100EC
:100050000C9451000C9451000C9451000C945100DC
:100060000C9451000C94510011241FBECFEFD8E026
:10007000DEBFCDBF11E0A0E0B1E0EEEEF6E002C0E1
:1000800005900D92A632B107D9F721E0A6E2B1E0C2
:1000900001C01D92A633B207E1F70E9476000C94CE
:1000A00075030C94000081E090E09093C50080936C
:1000B000C40088E08093C10086E08093C200089568
:1000C000CF93C82F8A3019F48DE00E946000809190
:1000D000C00085FFFCCFC093C600CF9108958091EA
:1000E000C00087FFFCCF8091C60008950E94530096
:1000F0008EE091E0909333018093320180E091E0B3
:10010000909331018093300152985A9A02E211E0A3
:100110008FE1E82E81E0F82E4A990FC08CE191E042
:100120009F938F938FE191E09F938F930E94B200F2
:100130000F900F900F900F90FFCF1F930F93FF9290
:10014000EF920E94B200C6E2D1E00F900F900F90A4
:100150000F90899190E00E94C80081E0C033D807D9
:10016000C1F7DACFB0E0A0E0E8EBF0E00C944E038A
:10017000AE014B5F5F4FFA0161917191AF018091C8
:100180003201909133010E94CF00E2E00C946A03A7
:1001900060913201709133010E94B0020895ABE08A
:1001A000B0E0E5EDF0E00C943E037C013B018A01F8
:1001B000FC0117821682838181FFB9C19AE0292E42
:1001C000CE0101965C01F7019381F30193FD8591C6
:1001D00093FF81913F01882309F446C1853239F4A8
:1001E00093FD859193FF81913F01853229F4B701F9
:1001F00090E00E94B002E7CF912C412C512CFFE1FE
:10020000F51538F08B3209F188F4803201F1833230
:1002100021F157FC3AC020ED280F2A3040F556FE58
:100220001FC0929C200D1124922E06C08D3291F099
:10023000803379F7689450F8F30193FD859193FF2B
:1002400081913F018111DBCF20C0689451F86894FF
:1002500052F8F2CF689453F8EFCF689454F8ECCF8B
:10026000429C200D1124422E689455F8E5CF8E3221
:1002700029F456FCF9C0689456F8DECF8C3619F490
:10028000689457F8D9CF8836B9F2982F9F7D955446
:100290009330C0F08336A1F18337C1F1833509F083
:1002A0005BC0F801C190D1908F01692D70E056FCC0
:1002B00002C06FEF7FEFC6010E949A024C01689462
:1002C00057F80AC00C5F1F4F2FE3298388248394BB
:1002D000912C6501E89457F853FC04C048141904A4
:1002E00009F018F5342C8114910431F5332009F408
:1002F0006ACFB70180E290E00E94B0023A94F6CF54
:10030000F801808189830E5F1F4FE0CFF801C19013
:10031000D1908F01692D70E056FC02C06FEF7FEF26
:10032000C6010E94A5024C01D5CFB70180E290E042
:100330000E94B0024A94D2CFF60157FC859157FE35
:1003400081916F01B70190E00E94B00231103A94A0
:10035000F1E08F1A9108C7CF843619F0893609F079
:1003600074C0F80157FE6AC06191719181919191B9
:100370008F01252D2F76D22E97FF09C0909580955D
:10038000709561957F4F8F4F9F4F6894D7F82AE003
:1003900030E0A5010E94E002C82ECA188C2C5D2C0A
:1003A000D6FE0CC0E89450F8C91440F4D4FE05C041
:1003B000D2FC03C0FD2DFE7E5F2E892C54FE8FC023
:1003C000FE01EC0DF11D8081803309F081C0252DE7
:1003D000297E522E852D8870382E53FC8FC050FEFA
:1003E00089C09C2C841418F44C0C942C981854FE3E
:1003F0008BC0B70180E390E00E94B00252FE09C0BA
:1004000088E790E051FE02C088E590E0B7010E94C5
:10041000B002C91408F484C0CA94D12C9FEFC91A41
:10042000D90ACA0CDB1CF60182916F01B70190E07A
:100430000E94B002AC14BD04B1F758CF6191719124
:10044000072E000C880B990B93CFD52CE894D4F889
:100450002AE030E0853739F1952D997FD92E8F36F6
:1004600001F148F48835A9F0F701868197812B9630
:10047000E2E10C945A03803749F08837A9F7D4FE9B
:1004800002C06894D2F820E130E00DC06894D4F83E
:10049000F6CF54FE03C0E92FE660DE2E20E132E005
:1004A00002C028E030E0F801D7FE0DC061917191E3
:1004B000819191918F01A5010E94E002C82ECA1876
:1004C000E894D7F86BCF6191719190E080E0F2CF22
:1004D00052FC02C083947ECF839483947BCF852D7E
:1004E000867809F477CFF6CFB70180E290E00E94DA
:1004F000B00283948414C0F3312C79CF342C381893
:10050000841408F474CFF8CF852D867809F481CF50
:100510008BE251FE80E257FC8DE2B70190E077CF8D
:10052000B70180E390E00E94B0029A9472CF8FEFFF
:100530009FEF9DCFFC010590615070400110D8F7EE
:10054000809590958E0F9F1F0895FC01615070401B
:1005500001900110D8F7809590958E0F9F1F0895F8
:100560000F931F93CF93DF93182F092FEB018B81EC
:1005700081FD09C01FEF0FEF812F902FDF91CF91E9
:100580001F910F91089582FF14C02E813F818C81AD
:100590009D81281739073CF4E881F981CF01019644
:1005A0009983888310838E819F8101969F838E8398
:1005B000E3CFE885F985812F0995892BA1F3DACF5F
:1005C000FA01AA27283051F1203181F1E8946F9384
:1005D0006E7F6E5F7F4F8F4F9F4FAF4FB1E03ED02A
:1005E000B4E03CD0670F781F891F9A1FA11D680FC8
:1005F000791F8A1F911DA11D6A0F711D811D911DFB
:10060000A11D20D009F468943F912AE0269F11246F
:100610003019305D3193DEF6CF010895462F4770D3
:10062000405D4193B3E00FD0C9F7F6CF462F4F702E
:10063000405D4A3318F0495D31FD4052419302D08C
:10064000A9F7EACFB4E0A695979587957795679532
:10065000BA95C9F700976105710508959B01AC0132
:100660000A2E06945795479537952795BA95C9F759
:10067000620F731F841F951FA01D08952F923F9234
:100680004F925F926F927F928F929F92AF92BF92A2
:10069000CF92DF92EF92FF920F931F93CF93DF934E
:1006A000CDB7DEB7CA1BDB0B0FB6F894DEBF0FBEAB
:1006B000CDBF09942A88398848885F846E847D84F8
:1006C0008C849B84AA84B984C884DF80EE80FD80FA
:1006D0000C811B81AA81B981CE0FD11D0FB6F89470
:0E06E000DEBF0FBECDBFED010895F894FFCF31
:1006EE00000000010000000000006F00000000008C
:1006FE00000200000000600000000000626F002594
:06070E0073006D610000A4
:00000001FF
